:100000000C942A000C9447000C9447000C94470071
:100010000C9447000C9447000C9447000C94470044
:100020000C9447000C9447000C9447000C94470034
:100030000C9447000C9447000C9447000C94470024
:100040000C9447000C9447000C9447000C94470014
:100050000C94470011241FBECFE5D8E0DEBFCDBF12
:1000600011E0A0E6B0E0E4ECFFE302C005900D92E1
:10007000A438B107D9F711E0A4E8B1E001C01D929E
:10008000AE3DB107E1F70E9499120C94E01F0C9469
:100090000000EF92FF920F931F937B018C0120E0F1
:1000A00030E040E05FE40E94550488238CF0C801F2
:1000B000B70120E030E040E05FE40E94C1010E940F
:1000C00013059B01AC01205030404040504806C011
:1000D000C801B7010E9413059B01AC01B901CA0117
:1000E0001F910F91FF90EF900895A0E0B0E0EBE733
:1000F000F0E00C94A91FDC012B01FA019C919230D5
:1001000008F439C1EB018881823008F433C194309E
:1001100069F4843009F02FC111969C91119789815F
:10012000981709F428C1ABE6B0E025C1843009F482
:1001300021C18230A9F4923009F01DC19A01AD01AC
:1001400088E0EA010990AE01E90109929E0181501F
:10015000C1F7E201898111969C918923818308C1AD
:10016000923009F407C112962D903C901397EB0141
:100170008A819B811496AD90BD90CD90DC901797AD
:10018000EC80FD800E811F819101281B390BB90184
:1001900037FF04C066277727621B730B6032710537
:1001A0000CF061C0121613066CF537014801062EDB
:1001B00004C096948794779467940A94D2F721E0C8
:1001C00030E040E050E004C0220F331F441F551FB1
:1001D0006A95D2F721503040404050402E213F21B7
:1001E00040235123211531054105510521F021E01E
:1001F00030E040E050E079018A01E628F72808293C
:1002000019293CC0232BD1F1260E371E350146019A
:10021000062E04C096948794779467940A94D2F734
:1002200021E030E040E050E004C0220F331F441FC3
:10023000551F6A95D2F721503040404050402A2146
:100240003B214C215D21211531054105510521F04E
:1002500021E030E040E050E059016A01A628B728CB
:10026000C828D9280BC0821593052CF01C01AA249C
:10027000BB24650103C0EE24FF24870111969C91E5
:10028000D20111968C91981709F445C0992339F041
:10029000A80197012A193B094C095D0906C0A6016E
:1002A00095012E193F09400B510B57FD08C01182D3
:1002B0003382228224833583468357831DC081E0A5
:1002C00081833382228288279927DC01821B930B4A
:1002D000A40BB50B84839583A683B7830DC0220F2F
:1002E000331F441F551F24833583468357838281E0
:1002F000938101979383828324813581468157813D
:10030000DA01C9010197A109B1098F5F9F4FAF4F72
:10031000BF4328F30BC0918333822282EA0CFB1C7B
:100320000C1D1D1DE482F5820683178383E0808304
:10033000248135814681578157FF1AC0C901AA27F8
:1003400097FDA095BA2F81709070A070B0705695EF
:10035000479537952795822B932BA42BB52B848318
:100360009583A683B7838281938101969383828349
:10037000DF0101C0D201CD01CDB7DEB7E2E10C94BF
:10038000C51FA0E2B0E0E7ECF1E00C94B51F698373
:100390007A838B839C832D833E834F835887E9E048
:1003A000EE2EF12CEC0EFD1ECE010196B7010E943F
:1003B00004078E010F5E1F4FCE010596B8010E9403
:1003C00004078A8991E089278A8BC701B801AE01A9
:1003D000475E5F4F0E9475000E942F06A096E6E0E0
:1003E0000C94D11FA0E2B0E0E8EFF1E00C94B51F4F
:1003F00069837A838B839C832D833E834F835887C5
:10040000F9E0EF2EF12CEC0EFD1ECE010196B701A6
:100410000E9404078E010F5E1F4FCE010596B801A2
:100420000E940407C701B801AE01475E5F4F0E94FA
:1004300075000E942F06A096E6E00C94D11FA0E262
:10044000B0E0E5E2F2E00C94A91F69837A838B8324
:100450009C832D833E834F835887CE010196BE0136
:10046000675F7F4F0E940407CE010596BE016F5E55
:100470007F4F0E9404079985923088F089898230E5
:10048000C8F0943019F4823051F404C0843029F457
:10049000923081F48BE690E0C6C0923049F420E0BF
:1004A0009A858A89981321E02A87CE010996BBC0D4
:1004B000823049F420E09A858A89981321E02A8BBA
:1004C000CE014196B0C02D843E844F8458886D88FB
:1004D0007E888F88988CEE24FF248701AA24BB2471
:1004E000650140E050E060E070E0E0E0F0E0C10174
:1004F00081709070892BE9F0E60CF71C081D191D1E
:100500009A01AB012A0D3B1D4C1D5D1D80E090E062
:10051000A0E0B0E0E614F7040805190520F481E036
:1005200090E0A0E0B0E0BA01A901480F591F6A1F8E
:100530007B1FAA0CBB1CCC1CDD1C97FE08C081E0F5
:1005400090E0A0E0B0E0A82AB92ACA2ADB2A3196B6
:10055000E032F10549F0660C771C881C991C569412
:10056000479437942794C3CFFA85EA892B893C892D
:100570008B859C85280F391F2E5F3F4F17C0CA01FE
:1005800081709070892B61F016950795F794E79428
:1005900080E090E0A0E0B0E8E82AF92A0A2B1B2BC3
:1005A00076956795579547952F5F3F4F77FDE7CF36
:1005B0000CC0440F551F661F771F17FD4160EE0CDE
:1005C000FF1C001F111F21503040403090E05907A0
:1005D00090E0690790E4790760F32B8F3C8FDB0193
:1005E000CA018F779070A070B07080349105A1051A
:1005F000B10561F447FD0AC0E114F10401051105DC
:1006000029F0405C5F4F6F4F7F4F40781A8EFE1786
:1006100011F081E08A8F4D8F5E8F6F8F78A383E01A
:10062000898FCE0149960E942F06A096E2E10C9494
:10063000C51FA8E1B0E0EFE1F3E00C94B11F6983BE
:100640007A838B839C832D833E834F835887B9E0C5
:10065000EB2EF12CEC0EFD1ECE010196B7010E948F
:1006600004078E010F5E1F4FCE010596B8010E9450
:1006700004072985223008F47EC03989323010F40D
:10068000B8017CC08A859A8989278A87243011F02D
:10069000223031F4231709F06EC06BE670E06EC0B3
:1006A000343039F41D861E861F86188A1C861B86E8
:1006B00004C0323021F484E08987B7015FC02B8504
:1006C0003C858B899C89281B390B3C872B87ED84C3
:1006D000FE840F851889AD88BE88CF88D88CEA142F
:1006E000FB040C051D0540F4EE0CFF1C001F111F40
:1006F000215030403C872B8720E030E040E050E044
:1007000080E090E0A0E0B0E460E070E0EA14FB0478
:100710000C051D0540F0282B392B4A2B5B2BEA18C2
:10072000FB080C091D09B695A79597958795EE0CC2
:10073000FF1C001F111F6F5F7F4F6F31710531F775
:10074000DA01C9018F779070A070B0708034910584
:10075000A105B10561F427FD0AC0E114F10401050A
:10076000110529F0205C3F4F4F4F5F4F20782D87B8
:100770003E874F87588BBE01675F7F4FCB010E943A
:100780002F066896EAE00C94CD1FA8E1B0E0EBECF0
:10079000F3E00C94B51F69837A838B839C832D834C
:1007A0003E834F83588789E0E82EF12CEC0EFD1E26
:1007B000CE010196B7010E9404078E010F5E1F4F04
:1007C000CE010596B8010E9404078985823040F069
:1007D0008989823028F0C701B8010E947C0701C0D6
:1007E00081E06896E6E00C94D11FA8E1B0E0EBEF61
:1007F000F3E00C94B51F69837A838B839C832D83EC
:100800003E834F83588789E0E82EF12CEC0EFD1EC5
:10081000CE010196B7010E9404078E010F5E1F4FA3
:10082000CE010596B8010E9404078985823040F008
:100830008989823028F0C701B8010E947C0701C075
:1008400081E06896E6E00C94D11FA8E1B0E0EBE20D
:10085000F4E00C94B51F69837A838B839C832D838A
:100860003E834F83588789E0E82EF12CEC0EFD1E65
:10087000CE010196B7010E9404078E010F5E1F4F43
:10088000CE010596B8010E9404078985823040F0A8
:100890008989823028F0C701B8010E947C0701C015
:1008A0008FEF6896E6E00C94D11FA8E1B0E0EBE58D
:1008B000F4E00C94B51F69837A838B839C832D832A
:1008C0003E834F83588789E0E82EF12CEC0EFD1E05
:1008D000CE010196B7010E9404078E010F5E1F4FE3
:1008E000CE010596B8010E9404078985823040F048
:1008F0008989823028F0C701B8010E947C0701C0B5
:100900008FEF6896E6E00C94D11FA8E1B0E0EBE829
:10091000F4E00C94B51F69837A838B839C832D83C9
:100920003E834F83588789E0E82EF12CEC0EFD1EA4
:10093000CE010196B7010E9404078E010F5E1F4F82
:10094000CE010596B8010E9404078985823040F0E7
:100950008989823028F0C701B8010E947C0701C054
:1009600081E06896E6E00C94D11FA8E0B0E0EBEBE4
:10097000F4E00C94B21F9B01AC0183E08983DA019F
:10098000C9018827B7FD83959927AA27BB27B82EC9
:10099000211531054105510519F482E089833AC0DA
:1009A0008823A9F0203080E0380780E0480780E8FD
:1009B000580729F460E070E080E09FEC30C0EE243E
:1009C000FF248701E21AF30A040B150B02C0790118
:1009D0008A018EE1C82ED12CDC82CB82ED82FE8290
:1009E0000F831887C801B7010E94E0050197181608
:1009F000190684F4082E04C0EE0CFF1C001F111F02
:100A00000A94D2F7ED82FE820F831887C81AD90A9A
:100A1000DC82CB82BA82CE0101960E942F062896F4
:100A2000E9E00C94CE1FACE0B0E0E9E1F5E00C9415
:100A3000B91F69837A838B839C83CE010196BE01A3
:100A40006B5F7F4F0E9404078D81823061F182309D
:100A500050F1843021F48E81882351F12EC02F81F2
:100A6000388537FD20C06E812F3131051CF066239B
:100A7000F9F023C08EE190E0821B930B29853A8523
:100A80004B855C8504C056954795379527958A9583
:100A9000D2F76623B1F050954095309521953F4FA0
:100AA0004F4F5F4F0EC020E030E040E050E009C003
:100AB0002FEF3FEF4FEF5FE704C020E030E040E072
:100AC00050E8B901CA012C96E2E00C94D51FA8E0C9
:100AD000B0E0EDE6F5E00C94B11F7B018C016115EF
:100AE00071058105910519F482E0898360C083E076
:100AF00089838EE1C82ED12CDC82CB82ED82FE82EE
:100B00000F831887C801B7010E94E005FC013197E7
:100B1000F7FF3BC0222733272E1B3F0B57016801ED
:100B2000022E04C0D694C794B794A7940A94D2F71F
:100B300040E050E060E070E081E090E0A0E0B0E0F4
:100B400004C0880F991FAA1FBB1F2A95D2F70197CF
:100B5000A109B1098E219F21A023B1230097A105EE
:100B6000B10521F041E050E060E070E04A295B29E6
:100B70006C297D294D835E836F8378878EE190E0B9
:100B80008E1B9F0B9C838B8312C0309781F00E2E9F
:100B900004C0EE0CFF1C001F111F0A94D2F7ED8257
:100BA000FE820F831887CE1ADF0ADC82CB821A827C
:100BB000CE0101960E942F062896EAE00C94CD1FE4
:100BC000EF92FF920F931F937B018C0180E0E81658
:100BD00080E0F80681E0080780E0180788F48FEFCE
:100BE000E816F1040105110531F028F088E090E0E5
:100BF000A0E0B0E017C080E090E0A0E0B0E012C05C
:100C000080E0E81680E0F80680E0080781E0180739
:100C100028F088E190E0A0E0B0E004C080E190E03E
:100C2000A0E0B0E020E230E040E050E0281B390BCB
:100C30004A0B5B0B04C016950795F794E7948A95C9
:100C4000D2F7F701ED58FF4F8081281B3109410988
:100C50005109C9011F910F91FF90EF900895DF9204
:100C6000EF92FF920F931F93FC01E480F5800681C1
:100C70001781D1808081823048F480E090E0A0E14B
:100C8000B0E0E82AF92A0A2B1B2BA5C0843009F40E
:100C90009FC0823021F4EE24FF24870105C0E114B7
:100CA000F1040105110519F4E0E0F0E096C062815D
:100CB00073819FEF623879070CF05BC022E83FEF49
:100CC000261B370B2A3131052CF020E030E040E0C4
:100CD00050E02AC0B801A701022E04C0769567959E
:100CE000579547950A94D2F781E090E0A0E0B0E0F4
:100CF00004C0880F991FAA1FBB1F2A95D2F701971E
:100D0000A109B1098E219F21A023B1230097A1053C
:100D1000B10521F081E090E0A0E0B0E09A01AB01E4
:100D2000282B392B4A2B5B2BDA01C9018F77907066
:100D3000A070B07080349105A105B10539F427FF8A
:100D400009C0205C3F4F4F4F5F4F04C0215C3F4FB5
:100D50004F4F5F4FE0E0F0E02030A0E03A07A0E026
:100D60004A07A0E45A0710F0E1E0F0E079018A01B7
:100D700027C06038710564F5FB01E158FF4FD801C9
:100D8000C7018F779070A070B07080349105A10575
:100D9000B10539F4E7FE0DC080E490E0A0E0B0E0DA
:100DA00004C08FE390E0A0E0B0E0E80EF91E0A1F57
:100DB0001B1F17FF05C016950795F794E79431960A
:100DC00087E016950795F794E7948A95D1F705C0C3
:100DD000EE24FF248701EFEFF0E06E2F6795662782
:100DE0006795902F9F77D794DD24D7948E2F869583
:100DF000492F462B582F5D29B701CA011F910F912A
:100E0000FF90EF90DF900895FC01DB01408151815C
:100E10002281622F6F7770E0221F2227221F938189
:100E2000892F880F822B282F30E0991F9927991F2F
:100E300011969C93119721153105A9F5411551057E
:100E40006105710511F482E037C082E89FEF1396C7
:100E50009C938E9312979A01AB0167E0220F331F88
:100E6000441F551F6A95D1F783E08C930DC0220F64
:100E7000331F441F551F12968D919C911397019714
:100E800013969C938E931297203080E0380780E071
:100E9000480780E4580758F314962D933D934D93DB
:100EA0005C93179708952F3F310579F4411551054B
:100EB0006105710519F484E08C93089564FF03C003
:100EC00081E08C9312C01C9210C02F5730401396B3
:100ED0003C932E93129783E08C9387E0440F551F29
:100EE000661F771F8A95D1F7706414964D935D93B2
:100EF0006D937C93179708951F93DC01FB019C91E0
:100F0000923008F447C08081823008F443C09430A6
:100F100051F411961C91843099F58181682F70E00D
:100F2000611B71093FC0843021F0923031F482306E
:100F3000B9F18181882389F12DC011961C911197F7
:100F40008230F1F081811817D9F412962D913C91DD
:100F50001397828193818217930794F0281739079A
:100F6000BCF014968D919D910D90BC91A02D248183
:100F7000358146815781281739074A075B0718F4DE
:100F8000112341F00AC082179307A407B50740F464
:100F9000112319F061E070E005C06FEF7FEF02C030
:100FA00060E070E0CB011F910895DF93CF93CDB740
:100FB000DEB72E970FB6F894DEBF0FBECDBF80E030
:100FC00090E0A0E2B2E48B879C87AD87BE876B85FB
:100FD0007C858D859E8520E030E04AEF54E40E94B8
:100FE0001F02DC01CB018F839887A987BA876F81A5
:100FF000788589859A8520E030E040E85FE30E94AB
:10100000850488232CF481E090E09E838D833FC08B
:101010006F81788589859A8520E03FEF4FE757E417
:101020000E94250418164CF56B857C858D859E8560
:1010300020E030E040E251E40E941F02DC01CB01DD
:10104000BC01CD010E944900DC01CB019E838D8350
:101050000FC088EC90E09C838B838B819C810197EF
:10106000F1F79C838B838D819E8101979E838D8375
:101070008D819E81009769F714C06F81788589857D
:101080009A850E944900DC01CB019E838D838D816E
:101090009E819A83898389819A810197F1F79A8346
:1010A000898382E00E94690888E20E9469088CE0D6
:1010B0000E94690881E00E94690886E00E94690830
:1010C0002E960FB6F894DEBF0FBECDBFCF91DF9145
:1010D0000895DF93CF93CDB7DEB7E9970FB6F894B5
:1010E000DEBF0FBECDBF89AF80E063E040E00E946D
:1010F000E50F89AD82958F70982F917081E060E047
:10110000492F0E94E50F89AD829586958770982FAB
:10111000917081E061E0492F0E94E50F89AD8295D1
:10112000869586958370982F917081E062E0492FB3
:101130000E94E50F89AD982F991F9927991F81E08B
:1011400064E0492F0E94E50F80E062E041E00E94E8
:10115000E50F80E090E0A0E0B0E48DAB9EABAFABDC
:10116000B8AF6DA97EA98FA998AD20E030E04AEF15
:1011700054E40E941F02DC01CB0189AB9AABABABFC
:10118000BCAB69A97AA98BA99CA920E030E040E812
:101190005FE30E94850488232CF481E090E098AB03
:1011A0008FA73FC069A97AA98BA99CA920E03FEF2E
:1011B0004FE757E40E94250418164CF56DA97EA947
:1011C0008FA998AD20E030E040E251E40E941F0278
:1011D000DC01CB01BC01CD010E944900DC01CB0147
:1011E00098AB8FA70FC088EC90E09EA78DA78DA528
:1011F0009EA50197F1F79EA78DA78FA598A90197A6
:1012000098AB8FA78FA598A9009769F714C069A913
:101210007AA98BA99CA90E944900DC01CB0198AB5B
:101220008FA78FA598A99CA78BA78BA59CA5019795
:10123000F1F79CA78BA780E062E040E00E94E50FF9
:1012400080E090E0A0E0B0E48FA398A7A9A7BAA798
:101250006FA178A589A59AA520E030E04AEF54E473
:101260000E941F02DC01CB018BA39CA3ADA3BEA3F4
:101270006BA17CA18DA19EA120E030E040E85FE35E
:101280000E94850488232CF481E090E09AA389A32E
:101290003FC06BA17CA18DA19EA120E03FEF4FE755
:1012A00057E40E94250418164CF56FA178A589A56E
:1012B0009AA520E030E040E251E40E941F02DC01E8
:1012C000CB01BC01CD010E944900DC01CB019AA3F6
:1012D00089A30FC088EC90E098A38F8F8F8D98A181
:1012E0000197F1F798A38F8F89A19AA101979AA3EB
:1012F00089A389A19AA1009769F714C06BA17CA169
:101300008DA19EA10E944900DC01CB019AA389A373
:1013100089A19AA19E8F8D8F8D8D9E8D0197F1F75A
:101320009E8F8D8F89AD982F917081E060E0492F5D
:101330000E94E50F89AD8695982F917081E061E05C
:10134000492F0E94E50F89AD86958695982F91705B
:1013500081E062E0492F0E94E50F89AD8695869570
:101360008695982F917081E064E0492F0E94E50FE7
:1013700080E062E041E00E94E50F80E090E0A0E0C4
:10138000B0E4898F9A8FAB8FBC8F698D7A8D8B8DEE
:101390009C8D20E030E04AEF54E40E941F02DC0103
:1013A000CB018D8B9E8BAF8BB88F6D897E898F899A
:1013B000988D20E030E040E85FE30E9485048823B8
:1013C0002CF481E090E09C8B8B8B3FC06D897E89F3
:1013D0008F89988D20E03FEF4FE757E40E94250466
:1013E00018164CF5698D7A8D8B8D9C8D20E030E040
:1013F00040E251E40E941F02DC01CB01BC01CD019F
:101400000E944900DC01CB019C8B8B8B0FC088ECC8
:1014100090E09A8B898B89899A890197F1F79A8B49
:10142000898B8B899C8901979C8B8B8B8B899C8961
:10143000009769F714C06D897E898F89988D0E9405
:101440004900DC01CB019C8B8B8B8B899C89988B11
:101450008F878F8598890197F1F7988B8F8780E028
:1014600062E040E00E94E50F80E090E0A0E0B0E4A0
:101470008B879C87AD87BE876B857C858D859E8598
:1014800020E030E04AEF54E40E941F02DC01CB016F
:101490008F839887A987BA876F81788589859A8590
:1014A00020E030E040E85FE30E94850488232CF4CC
:1014B00081E090E09E838D833FC06F817885898530
:1014C0009A8520E03FEF4FE757E40E942504181665
:1014D0004CF56B857C858D859E8520E030E040E273
:1014E00051E40E941F02DC01CB01BC01CD010E942E
:1014F0004900DC01CB019E838D830FC088EC90E016
:101500009C838B838B819C810197F1F79C838B83D8
:101510008D819E8101979E838D838D819E81009711
:1015200069F714C06F81788589859A850E94490082
:10153000DC01CB019E838D838D819E819A8389837B
:1015400089819A810197F1F79A838983E9960FB689
:10155000F894DEBF0FBECDBFCF91DF910895DF932A
:10156000CF93CDB7DEB7E9970FB6F894DEBF0FBEC5
:10157000CDBF89AF80E063E041E00E94E50F89AD17
:1015800082958F70982F917081E060E0492F0E94C2
:10159000E50F89AD829586958770982F917081E0CF
:1015A00061E0492F0E94E50F89AD82958695869569
:1015B0008370982F917081E062E0492F0E94E50FBF
:1015C00089AD982F991F9927991F81E064E0492FD1
:1015D0000E94E50F80E062E041E00E94E50F80E0BC
:1015E00090E0A0E0B0E48DAB9EABAFABB8AF6DA91F
:1015F0007EA98FA998AD20E030E04AEF54E40E9424
:101600001F02DC01CB0189AB9AABABABBCAB69A9C8
:101610007AA98BA99CA920E030E040E85FE30E9412
:10162000850488232CF481E090E098AB8FA73FC01D
:1016300069A97AA98BA99CA920E03FEF4FE757E45D
:101640000E94250418164CF56DA97EA98FA998ADA6
:1016500020E030E040E251E40E941F02DC01CB01B7
:10166000BC01CD010E944900DC01CB0198AB8FA7E2
:101670000FC088EC90E09EA78DA78DA59EA5019731
:10168000F1F79EA78DA78FA598A9019798AB8FA773
:101690008FA598A9009769F714C069A97AA98BA9A1
:1016A0009CA90E944900DC01CB0198AB8FA78FA5B4
:1016B00098A99CA78BA78BA59CA50197F1F79CA740
:1016C0008BA780E062E040E00E94E50F80E090E0C0
:1016D000A0E0B0E48FA398A7A9A7BAA76FA178A5A7
:1016E00089A59AA520E030E04AEF54E40E941F0249
:1016F000DC01CB018BA39CA3ADA3BEA36BA17CA1FA
:101700008DA19EA120E030E040E85FE30E948504C7
:1017100088232CF481E090E09AA389A33FC06BA1B9
:101720007CA18DA19EA120E03FEF4FE757E40E94EE
:10173000250418164CF56FA178A589A59AA520E077
:1017400030E040E251E40E941F02DC01CB01BC0109
:10175000CD010E944900DC01CB019AA389A30FC0EF
:1017600088EC90E098A38F8F8F8D98A10197F1F767
:1017700098A38F8F89A19AA101979AA389A389A180
:101780009AA1009769F714C06BA17CA18DA19EA1BD
:101790000E944900DC01CB019AA389A389A19AA1E7
:1017A0009E8F8D8F8D8D9E8D0197F1F79E8F8D8FE2
:1017B00089AD982F917081E060E0492F0E94E50F7C
:1017C00089AD8695982F917081E061E0492F0E9444
:1017D000E50F89AD86958695982F917081E062E03E
:1017E000492F0E94E50F89AD869586958695982F9D
:1017F000917081E064E0492F0E94E50F80E062E093
:1018000041E00E94E50F80E090E0A0E0B0E4898F25
:101810009A8FAB8FBC8F698D7A8D8B8D9C8D20E0DC
:1018200030E04AEF54E40E941F02DC01CB018D8BB3
:101830009E8BAF8BB88F6D897E898F89988D20E0C4
:1018400030E040E85FE30E94850488232CF481E0C7
:1018500090E09C8B8B8B3FC06D897E898F89988DA2
:1018600020E03FEF4FE757E40E94250418164CF59F
:10187000698D7A8D8B8D9C8D20E030E040E251E4C3
:101880000E941F02DC01CB01BC01CD010E94490076
:10189000DC01CB019C8B8B8B0FC088EC90E09A8B8A
:1018A000898B89899A890197F1F79A8B898B8B8922
:1018B0009C8901979C8B8B8B8B899C89009769F7FE
:1018C00014C06D897E898F89988D0E944900DC0142
:1018D000CB019C8B8B8B8B899C89988B8F878F8579
:1018E00098890197F1F7988B8F8780E062E040E05C
:1018F0000E94E50F80E090E0A0E0B0E48B879C8739
:10190000AD87BE876B857C858D859E8520E030E028
:101910004AEF54E40E941F02DC01CB018F839887B9
:10192000A987BA876F81788589859A8520E030E01C
:1019300040E85FE30E94850488232CF481E090E076
:101940009E838D833FC06F81788589859A8520E04D
:101950003FEF4FE757E40E94250418164CF56B85BE
:101960007C858D859E8520E030E040E251E40E9438
:101970001F02DC01CB01BC01CD010E944900DC014A
:10198000CB019E838D830FC088EC90E09C838B837A
:101990008B819C810197F1F79C838B838D819E8144
:1019A00001979E838D838D819E81009769F714C076
:1019B0006F81788589859A850E944900DC01CB0179
:1019C0009E838D838D819E819A83898389819A816B
:1019D0000197F1F79A838983E9960FB6F894DEBFF1
:1019E0000FBECDBFCF91DF910895DF93CF9300D08D
:1019F0000F92CDB7DEB79B838A8319820EC089818F
:101A0000282F30E08A819B81FC01E20FF31F808147
:101A10000E94AF0A89818F5F89838981282F30E0F6
:101A20008A819B81FC01E20FF31F8081882339F7B3
:101A30000F900F900F90CF91DF910895DF93CF9388
:101A4000CDB7DEB72B970FB6F894DEBF0FBECDBF74
:101A50009B878A878A859B85009719F480E30E947B
:101A6000AF0A8A859B859C838B831A821DC08A81DD
:101A7000E82FF0E08B819C812AE030E0B9010E94E0
:101A8000731F282FCE010596E80FF91F20838B8145
:101A90009C812AE030E0B9010E94731FCB019C8336
:101AA0008B838A818F5F8A838B819C810097F9F673
:101AB0008A81898312C08981882F90E09C012150FE
:101AC0003040CE010596FC01E20FF31F8081805D5E
:101AD0000E94AF0A8981815089838981882359F7BF
:101AE0002B960FB6F894DEBF0FBECDBFCF91DF911E
:101AF00008950F931F93DF93CF93CDB7DEB76A9707
:101B00000FB6F894DEBF0FBECDBF6E8B7F8B888F74
:101B1000998F1A8E6E897F89888D998D20E030E0AB
:101B200040E050E00E94F503882311F081E08A8FA5
:101B300081E09A8D8927882319F080E30E94AF0AFB
:101B40008E899F89A88DB98D88879987AA87BB8739
:101B50001D8213C0688579858A859B8520E030E0E9
:101B600040E251E40E941F02DC01CB018887998783
:101B7000AA87BB878D818F5F8D83688579858A85EC
:101B80009B850E944900DC01CB01BC01CD010E9474
:101B900067059B01AC01688579858A859B850E94D4
:101BA000C101DC01CB01BC01CD0120E030E040E00F
:101BB00050E00E94F503882369F6688579858A8557
:101BC0009B850E944900DC01CB0189839A83AB830A
:101BD000BC831F822DC08F81082F10E089819A81DC
:101BE000AB81BC812AE030E040E050E0BC01CD0197
:101BF0000E94871FDC01CB01282FCE010C96FC012F
:101C0000E00FF11F208389819A81AB81BC812AE09A
:101C100030E040E050E0BC01CD010E94871FDA01B6
:101C2000C90189839A83AB83BC838F818F5F8F8344
:101C300089819A81AB81BC810097A105B10559F6D4
:101C40009F818D81981719F480E30E94AF0A8F81DC
:101C50008E8319C09E818D81981719F48EE20E949F
:101C6000AF0A8E81882F90E09C0121503040CE0138
:101C70000C96FC01E20FF31F8081805D0E94AF0A89
:101C80008E8181508E838E81882321F78D818823D8
:101C900031F48EE20E94AF0A80E30E94AF0A6A9696
:101CA0000FB6F894DEBF0FBECDBFCF91DF911F916D
:101CB0000F910895DF93CF9300D000D00F92CDB74E
:101CC000DEB78A836B838A81282F30E03D832C83A3
:101CD0008C819D8181309105C1F02C813D81223024
:101CE00031052CF48C819D81009761F019C02C8105
:101CF0003D812230310569F08C819D8183309105D1
:101D000061F00EC08B8189830BC08B81805C8983DD
:101D100007C08B818C5E898303C08B818C5A898339
:101D200089818068898389810E9469080F900F905A
:101D30000F900F900F90CF91DF910895DF93CF9385
:101D400000D000D00F92CDB7DEB79C838B836D831C
:101D50001A828D81882F90E0880F991F880F991F14
:101D6000880F991F8A838A8180648A838A810E946E
:101D7000690819820EC08981282F30E08B819C81EF
:101D8000FC01E20FF31F80810E94AF0A89818F5FFF
:101D900089838981883078F380E060E00E945A0E60
:101DA0000F900F900F900F900F90CF91DF910895AB
:101DB000DF93CF9300D00F92CDB7DEB789836A83CC
:101DC0004B838A816B810E945A0E89810E94AF0ADF
:101DD0000F900F900F90CF91DF910895DF93CF93E5
:101DE000CDB7DEB780E06CEF0E94050F81E06FEFAA
:101DF0000E94050F82E06FEF0E94050F83E063E110
:101E00000E94050FCF91DF910895DF93CF9300D00B
:101E100000D00F92CDB7DEB78A836B8319828A8197
:101E2000282F30E03D832C838C819D81813091056A
:101E3000D1F02C813D81223031052CF48C819D81A3
:101E4000009761F01FC02C813D812230310581F067
:101E50008C819D818330910581F014C0EAE3F0E02C
:101E60008B81808311C0E7E3F0E08B8180830CC01D
:101E7000E4E3F0E08B81808307C0E1E3F0E08B8155
:101E8000808302C081E0898389810F900F900F9039
:101E90000F900F90CF91DF910895DF93CF93CDB73F
:101EA000DEB727970FB6F894DEBF0FBECDBF8A838B
:101EB0006B835D834C8319828B81883008F079C0F5
:101EC0008C819D81009709F474C08A81282F30E0AD
:101ED0003F832E834E815F814130510559F18E81C0
:101EE0009F818230910534F42E813F812115310587
:101EF00069F05CC04E815F814230510579F18E817D
:101F00009F818330910509F43DC050C0E9E3F0E0C2
:101F10008081282F30E08B81882F90E0A90102C0BA
:101F2000559547958A95E2F7CA018170EC81FD814C
:101F3000808341C0E6E3F0E08081282F30E08B8190
:101F4000882F90E0A90102C0559547958A95E2F740
:101F5000CA018170EC81FD8180832DC0E3E3F0E054
:101F60008081282F30E08B81882F90E0A90102C06A
:101F7000559547958A95E2F7CA018170EC81FD81FC
:101F8000808319C0E0E3F0E08081282F30E08B816E
:101F9000882F90E0A90102C0559547958A95E2F7F0
:101FA000CA018170EC81FD81808305C081E0898355
:101FB00002C081E08983898127960FB6F894DEBF3D
:101FC0000FBECDBFCF91DF910895DF93CF93CDB7F3
:101FD000DEB728970FB6F894DEBF0FBECDBF8A8359
:101FE0006B834C8319828B81883008F0F4C08C811C
:101FF000813009F072C08A81282F30E038872F8322
:102000008F8198858130910549F12F813885223063
:1020100031052CF48F819885009761F05BC02F818A
:1020200038852230310571F18F8198858330910593
:10203000E9F150C0ABE3B0E0EBE3F0E08081482F82
:102040008B81282F30E081E090E0022E02C0880FC3
:10205000991F0A94E2F7842B8C93BFC0A8E3B0E0E9
:10206000E8E3F0E08081482F8B81282F30E081E089
:1020700090E0022E02C0880F991F0A94E2F7842B89
:102080008C93ABC0A5E3B0E0E5E3F0E08081482F9E
:102090008B81282F30E081E090E0022E02C0880F73
:1020A000991F0A94E2F7842B8C9397C0A2E3B0E0C7
:1020B000E2E3F0E08081482F8B81282F30E081E03F
:1020C00090E0022E02C0880F991F0A94E2F7842B39
:1020D0008C9383C081E0898380C08C81882309F040
:1020E00077C08A81282F30E03E832D838D819E81A9
:1020F0008130910559F12D813E81223031052CF43A
:102100008D819E81009769F060C02D813E812230D3
:10211000310589F18D819E818330910509F440C09C
:1021200054C0ABE3B0E0EBE3F0E08081482F8B815B
:10213000282F30E081E090E0022E02C0880F991F26
:102140000A94E2F7809584238C9347C0A8E3B0E01B
:10215000E8E3F0E08081482F8B81282F30E081E098
:1021600090E0022E02C0880F991F0A94E2F7809532
:1021700084238C9332C0A5E3B0E0E5E3F0E08081F6
:10218000482F8B81282F30E081E090E0022E02C0A2
:10219000880F991F0A94E2F7809584238C931DC0C1
:1021A000A2E3B0E0E2E3F0E08081482F8B81282FAA
:1021B00030E081E090E0022E02C0880F991F0A945F
:1021C000E2F7809584238C9308C081E0898305C061
:1021D00081E0898302C081E08983898128960FB6D6
:1021E000F894DEBF0FBECDBFCF91DF910895DF938E
:1021F000CF9300D000D00F92CDB7DEB78A836B8328
:1022000019828A81282F30E03D832C838C819D8127
:1022100081309105D1F02C813D81223031052CF4A3
:102220008C819D81009761F01FC02C813D812230FF
:10223000310581F08C819D818330910581F014C03E
:10224000EBE3F0E08B81808311C0E8E3F0E08B8169
:1022500080830CC0E5E3F0E08B81808307C0E2E37C
:10226000F0E08B81808302C081E0898389810F90B7
:102270000F900F900F900F90CF91DF910895DF9303
:10228000CF9300D000D00F92CDB7DEB78A836B8397
:1022900019828B81883008F072C08A81282F30E043
:1022A0003D832C838C819D818130910549F12C8166
:1022B0003D81223031052CF48C819D81009761F0A5
:1022C0005BC02C813D812230310571F18C819D8173
:1022D00083309105E9F150C0ABE3B0E0EBE3F0E00F
:1022E0008081482F8B81282F30E081E090E0022E02
:1022F00002C0880F991F0A94E2F784278C9341C08B
:10230000A8E3B0E0E8E3F0E08081482F8B81282F3C
:1023100030E081E090E0022E02C0880F991F0A94FD
:10232000E2F784278C932DC0A5E3B0E0E5E3F0E06D
:102330008081482F8B81282F30E081E090E0022EB1
:1023400002C0880F991F0A94E2F784278C9319C062
:10235000A2E3B0E0E2E3F0E08081482F8B81282FF8
:1023600030E081E090E0022E02C0880F991F0A94AD
:10237000E2F784278C9305C081E0898302C081E065
:10238000898389810F900F900F900F900F90CF91BC
:10239000DF910895DF93CF93CDB7DEB7A4970FB643
:1023A000F894DEBF0FBECDBF1D82CE01079699A364
:1023B00088A3E3E7F1E0FBA3EAA3F0E1FCA3EAA131
:1023C000FBA100808AA19BA101969BA38AA3E8A1FF
:1023D000F9A1008288A199A1019699A388A39CA143
:1023E00091509CA3ECA1EE2351F785E08F8B84E004
:1023F000888F83E0898F82E08A8F87E08B8F86E0E9
:102400008C8F85E08D8F83E08E8F1A82198212C0A7
:1024100029813A81CE014796FC01E20FF31F90819A
:1024200082E0692F41E00E94E50F89819A8101963F
:102430009A83898389819A81843091054CF31C8227
:1024400068C08C81282F30E0CE014796FC01E20F56
:10245000F31F908182E0692F40E00E94E50F1B820C
:1024600043C08B81282F30E0CE014B96FC01E20F58
:10247000F31F90819E012A5F3F4F83E0692FA901DE
:102480000E944D0F8E81882361F511C08B81282F0A
:1024900030E0CE014B96FC01E20FF31F90819E01CC
:1024A0002A5F3F4F83E0692FA9010E944D0F8E8163
:1024B000882361F38C81282F30E08B81482F50E0F6
:1024C000220F331F220F331FCE010196820F931F5D
:1024D000840F951FFC01369680818D83FD81FF8FCF
:1024E0001EC08B818F5F8B838B81843008F4B9CFC2
:1024F0008C81282F30E0CE014796FC01E20FF31FBC
:10250000908182E0692F41E00E94E50F8C818F5F0E
:102510008C838C81843008F494CF8D818F8F8F8D44
:10252000A4960FB6F894DEBF0FBECDBFCF91DF915A
:102530000895DF93CF9300D0CDB7DEB70E94EE0EA3
:102540000E94D5071A8223C08A81882F90E0FC015F
:10255000E055FE4F10828A81882F90E0880F991FE6
:10256000880F991FFC01E957FE4F80E090E0A0E042
:10257000B0E080839183A283B3838A81882F90E027
:10258000FC01ED52FE4F10828A818F5F8A838A811F
:102590008A30D0F28DEC9CECACECBDE38093CF01A3
:1025A0009093D001A093D101B093D20110928601F3
:1025B0001092DD011092BA011092AF010E94171320
:1025C0000E94431381E060E00E945A0E19820CC001
:1025D0008981882F90E0FC01E554FE4F80810E94A4
:1025E000AF0A89818F5F89839091DD018981891785
:1025F00078F30E94371A0E94A81B0E94E91C83E00E
:1026000069E00E945A0E8091AF01882319F08DE293
:102610000E94AF0A8091870190918801A091890161
:10262000B0918A01BC01CD010E94790DFFCFDF93EB
:10263000CF93CDB7DEB71BC00E94CA11809384012F
:1026400080918401882399F0809184010E94AF0ACF
:102650008091DD01882F90E020918401FC01E554F8
:10266000FE4F20838091DD018F5F8093DD0180919B
:1026700084018D3309F78091DD0181508093DD0164
:10268000CF91DF910895DF93CF93CDB7DEB76B97EE
:102690000FB6F894DEBF0FBECDBF8091BB018A326A
:1026A00029F08091BB018F3209F045C082E064E0DF
:1026B0000E945A0E80E690E00E94F50C1B8E23C00B
:1026C0008B8D882F90E0FC01E055FE4F10828B8DA2
:1026D000882F90E0880F991F880F991FFC01E957F8
:1026E000FE4F80E090E0A0E0B0E080839183A28381
:1026F000B3838B8D882F90E0FC01ED52FE4F10824A
:102700008B8D8F5F8B8F8B8D8A30D0F28DEC9CEC14
:10271000ACECBDE38093CF019093D001A093D101A5
:10272000B093D201109286011092DD011092BA018D
:102730001092AF0148C08091BB018B32F9F41A8E20
:1027400012C08A8D282F30E08A8D882F90E0019664
:10275000FC01E554FE4F8081F901E554FE4F808372
:102760008A8D8F5F8A8F9091DD018A8D891748F35A
:102770008091DD0181508093DD0125C08091BB01F6
:102780008D3209F5198E12C0898D282F30E0898D80
:10279000882F90E00196FC01E554FE4F8081F901FD
:1027A000E554FE4F8083898D8F5F898F9091DD0185
:1027B000898D891748F38091DD0181508093DD0177
:1027C00081E08093AF01188E2DC5888D882F90E011
:1027D000FC01E554FE4F80818B3209F050C0888D9A
:1027E000882F90E00196FC01E554FE4F80818A32EB
:1027F00009F045C082E064E00E945A0E80E690E055
:102800000E94F50C1F8A23C08F89882F90E0FC015D
:10281000E055FE4F10828F89882F90E0880F991F16
:10282000880F991FFC01E957FE4F80E090E0A0E07F
:10283000B0E080839183A283B3838F89882F90E057
:10284000FC01ED52FE4F10828F898F5F8F8B8F8935
:102850008A30D0F28DEC9CECACECBDE38093CF01E0
:102860009093D001A093D101B093D2011092860130
:102870001092DD011092BA011092AF01D0C4888D80
:10288000882F90E0FC01E554FE4F80818B3209F0E7
:1028900050C0888D882F90E00196FC01E554FE4FD2
:1028A00080818F3209F045C082E064E00E945A0EB8
:1028B00080E690E00E94F50C1E8A23C08E89882F46
:1028C00090E0FC01E055FE4F10828E89882F90E049
:1028D000880F991F880F991FFC01E957FE4F80E070
:1028E00090E0A0E0B0E080839183A283B3838E89DF
:1028F000882F90E0FC01ED52FE4F10828E898F5F91
:102900008E8B8E898A30D0F28DEC9CECACECBDE3E2
:102910008093CF019093D001A093D101B093D201C5
:10292000109286011092DD011092BA011092AF014F
:1029300076C4888D882F90E0FC01E554FE4F80819D
:102940008D3209F050C0888D882F90E00196FC01EF
:10295000E554FE4F80818A3209F045C082E064E090
:102960000E945A0E80E690E00E94F50C1D8A23C05A
:102970008D89882F90E0FC01E055FE4F10828D89F3
:10298000882F90E0880F991F880F991FFC01E95745
:10299000FE4F80E090E0A0E0B0E080839183A283CE
:1029A000B3838D89882F90E0FC01ED52FE4F108299
:1029B0008D898F5F8D8B8D898A30D0F28DEC9CEC68
:1029C000ACECBDE38093CF019093D001A093D101F3
:1029D000B093D201109286011092DD011092BA01DB
:1029E0001092AF011CC4888D882F90E0FC01E55443
:1029F000FE4F80818D3209F050C0888D882F90E085
:102A00000196FC01E554FE4F80818F3209F045C0EC
:102A100082E064E00E945A0E80E690E00E94F50C8D
:102A20001C8A23C08C89882F90E0FC01E055FE4F62
:102A300010828C89882F90E0880F991F880F991F2A
:102A4000FC01E957FE4F80E090E0A0E0B0E0808319
:102A50009183A283B3838C89882F90E0FC01ED528F
:102A6000FE4F10828C898F5F8C8B8C898A30D0F2DC
:102A70008DEC9CECACECBDE38093CF019093D00146
:102A8000A093D101B093D201109286011092DD0182
:102A90001092BA011092AF01C2C3888D882F90E0C6
:102AA000FC01E554FE4F80818A3209F050C0888DC8
:102AB000882F90E00196FC01E554FE4F80818A3218
:102AC00009F045C082E064E00E945A0E80E690E082
:102AD0000E94F50C1B8A23C08B89882F90E0FC0193
:102AE000E055FE4F10828B89882F90E0880F991F48
:102AF000880F991FFC01E957FE4F80E090E0A0E0AD
:102B0000B0E080839183A283B3838B89882F90E088
:102B1000FC01ED52FE4F10828B898F5F8B8B8B896E
:102B20008A30D0F28DEC9CECACECBDE38093CF010D
:102B30009093D001A093D101B093D201109286015D
:102B40001092DD011092BA011092AF0168C3888D16
:102B5000882F90E0FC01E554FE4F80818F3209F010
:102B600050C0888D882F90E00196FC01E554FE4FFF
:102B700080818F3209F045C082E064E00E945A0EE5
:102B800080E690E00E94F50C1A8A23C08A89882F7B
:102B900090E0FC01E055FE4F10828A89882F90E07A
:102BA000880F991F880F991FFC01E957FE4F80E09D
:102BB00090E0A0E0B0E080839183A283B3838A8910
:102BC000882F90E0FC01ED52FE4F10828A898F5FC2
:102BD0008A8B8A898A30D0F28DEC9CECACECBDE318
:102BE0008093CF019093D001A093D101B093D201F3
:102BF000109286011092DD011092BA011092AF017D
:102C00000EC3888D882F90E0FC01E554FE4F808133
:102C10008E3209F050C0888D882F90E00196FC011B
:102C2000E554FE4F80818E3209F045C082E064E0B9
:102C30000E945A0E80E690E00E94F50C198A23C08B
:102C40008989882F90E0FC01E055FE4F1082898928
:102C5000882F90E0880F991F880F991FFC01E95772
:102C6000FE4F80E090E0A0E0B0E080839183A283FB
:102C7000B3838989882F90E0FC01ED52FE4F1082CA
:102C800089898F5F898B89898A30D0F28DEC9CECA1
:102C9000ACECBDE38093CF019093D001A093D10120
:102CA000B093D201109286011092DD011092BA0108
:102CB0001092AF01B4C2888D882F90E0FC01E554DA
:102CC000FE4F80818A32B1F5888D882F90E0019681
:102CD000FC01E554FE4F80818B3261F5888D882F91
:102CE00090E0FC01E554FE4F8AE28083888D8F5F7F
:102CF000888B12C08889282F30E08889882F90E03F
:102D00000196FC01E554FE4F8081F901E554FE4F28
:102D1000808388898F5F888B9091DD0188898917EE
:102D200048F38091DD0181508093DD01888D8150D1
:102D3000888F75C2888D882F90E0FC01E554FE4F86
:102D400080818F32B1F5888D882F90E00196FC014B
:102D5000E554FE4F80818B3261F5888D882F90E09D
:102D6000FC01E554FE4F8FE28083888D8F5F8F8753
:102D700012C08F85282F30E08F85882F90E0019634
:102D8000FC01E554FE4F8081F901E554FE4F80833C
:102D90008F858F5F8F879091DD018F85891748F32D
:102DA0008091DD0181508093DD01888D8150888F75
:102DB00036C2888D882F90E0FC01E554FE4F80815B
:102DC0008B32B1F5888D882F90E00196FC01E55497
:102DD000FE4F80818B3261F5888D882F90E0FC0159
:102DE000E554FE4F8BE28083888D8F5F8E8712C003
:102DF0008E85282F30E08E85882F90E00196FC018B
:102E0000E554FE4F8081F901E554FE4F80838E85A5
:102E10008F5F8E879091DD018E85891748F38091B1
:102E2000DD0181508093DD01888D8150888FF7C14D
:102E3000888D882F90E0FC01E554FE4F80818B3215
:102E4000B1F5888D882F90E00196FC01E554FE4F86
:102E500080818D3261F5888D882F90E0FC01E554EA
:102E6000FE4F8DE28083888D8F5F8D8712C08D85A8
:102E7000282F30E08D85882F90E00196FC01E554E5
:102E8000FE4F8081F901E554FE4F80838D858F5F71
:102E90008D879091DD018D85891748F38091DD0143
:102EA00081508093DD01888D8150888FB8C1888DD5
:102EB000882F90E0FC01E554FE4F80818D32B1F502
:102EC000888D882F90E00196FC01E554FE4F8081AB
:102ED0008B3261F5888D882F90E0FC01E554FE4F20
:102EE0008DE28083888D8F5F8C8712C08C85282F20
:102EF00030E08C85882F90E00196FC01E554FE4F70
:102F00008081F901E554FE4F80838C858F5F8C872B
:102F10009091DD018C85891748F38091DD01815006
:102F20008093DD01888D8150888F79C1888D882FAD
:102F300090E0FC01E554FE4F80818D32B1F5888D23
:102F4000882F90E00196FC01E554FE4F80818D3280
:102F500061F5888D882F90E0FC01E554FE4F8BE2EF
:102F60008083888D8F5F8B8712C08B85282F30E000
:102F70008B85882F90E00196FC01E554FE4F8081FF
:102F8000F901E554FE4F80838B858F5F8B8790918D
:102F9000DD018B85891748F38091DD018150809395
:102FA000DD01888D8150888F3AC1888D882F90E00F
:102FB000FC01E554FE4F80818D32B1F5888D882F5C
:102FC00090E00196FC01E554FE4F80818D3261F561
:102FD000888D882F90E0FC01E554FE4F8BE28083C2
:102FE000888D8F5F8A8712C08A85282F30E08A8576
:102FF000882F90E00196FC01E554FE4F8081F90195
:10300000E554FE4F80838A858F5F8A879091DD012A
:103010008A85891748F38091DD0181508093DD0115
:10302000888D8150888FFBC0888D882F90E0FC01AF
:10303000E554FE4F80818E32B1F5888D882F90E067
:103040000196FC01E554FE4F80818B3261F5888D3D
:10305000882F90E0FC01E554FE4F8BE28083888D41
:103060008F5F898712C08985282F30E08985882F56
:1030700090E00196FC01E554FE4F8081F901E55492
:10308000FE4F808389858F5F89879091DD018985D7
:10309000891748F38091DD0181508093DD01888D8F
:1030A0008150888FBCC0888D882F90E0FC01E5544A
:1030B000FE4F80818E32B1F5888D882F90E0019689
:1030C000FC01E554FE4F80818D3261F5888D882F9B
:1030D00090E0FC01E554FE4F8DE28083888D8F5F88
:1030E000888712C08885282F30E08885882F90E057
:1030F0000196FC01E554FE4F8081F901E554FE4F35
:10310000808388858F5F88879091DD018885891706
:1031100048F38091DD0181508093DD01888D8150DD
:10312000888F7DC0888D882F90E0FC01E554FE4F8C
:1031300080818E32B1F5888D882F90E00196FC0158
:10314000E554FE4F80818A3261F5888D882F90E0AA
:10315000FC01E554FE4F8AE28083888D8F5F8F8368
:1031600012C08F81282F30E08F81882F90E0019648
:10317000FC01E554FE4F8081F901E554FE4F808348
:103180008F818F5F8F839091DD018F81891748F345
:103190008091DD0181508093DD01888D8150888F81
:1031A0003EC0888D882F90E0FC01E554FE4F808161
:1031B0008E32A9F5888D882F90E00196FC01E554A8
:1031C000FE4F80818F3259F5888D882F90E0FC0169
:1031D000E554FE4F8FE28083888D8F5F8E8312C00F
:1031E0008E81282F30E08E81882F90E00196FC019F
:1031F000E554FE4F8081F901E554FE4F80838E81B6
:103200008F5F8E839091DD018E81891748F38091C5
:10321000DD0181508093DD01888D8150888F888DFC
:103220008F5F888F9091DD01888D981708F0CDCA47
:103230001D820EC18D81882F90E0FC01E554FE4F68
:1032400080818A3209F07CC08D81882F90E00196C0
:10325000FC01E554FE4F80818D3209F071C08D81F3
:10326000882F90E0FC01E554FE4F8AE280838D8137
:103270008F5F8C8312C08C81282F30E08C81882F47
:1032800090E00196FC01E554FE4F8081F901E55480
:10329000FE4F80838C818F5F8C839091DD018C81C8
:1032A000891748F38091DD0181508093DD018D8184
:1032B00082508B8331C08B81992787FD9095FC01CB
:1032C000E554FE4F80818B3269F48B81992787FD0D
:1032D0009095FC01E554FE4F8DE2808381E0809360
:1032E00085011DC08B81992787FD9095FC01E554D0
:1032F000FE4F80818D3269F48B81992787FD9095EF
:10330000FC01E554FE4F8BE2808381E080938501D0
:1033100006C08B8181508B838B81882364F68091DA
:103320008501882339F48091AF0191E0892780934A
:10333000AF0102C0109285018D8181508D8385C0BF
:103340008D81882F90E0FC01E554FE4F80818F3203
:1033500009F07BC08D81882F90E00196FC01E55437
:10336000FE4F80818D3209F070C08D81882F90E0F2
:10337000FC01E554FE4F8FE280838D818F5F8A834D
:1033800012C08A81282F30E08A81882F90E0019630
:10339000FC01E554FE4F8081F901E554FE4F808326
:1033A0008A818F5F8A839091DD018A81891748F332
:1033B0008091DD0181508093DD018D818250898370
:1033C00031C08981992787FD9095FC01E554FE4F16
:1033D00080818B3269F48981992787FD9095FC0162
:1033E000E554FE4F8DE2808381E0809385011DC00E
:1033F0008981992787FD9095FC01E554FE4F8081D6
:103400008D3269F48981992787FD9095FC01E554F7
:10341000FE4F8BE2808381E08093850106C0898125
:10342000815089838981882364F68091850188236E
:1034300039F48091AF0191E089278093AF0102C0F8
:10344000109285018D8181508D838D818F5F8D8359
:103450009091DD018D81891708F4ECCE6B960FB643
:10346000F894DEBF0FBECDBFCF91DF910895CF920C
:10347000DF92EF92FF920F931F93DF93CF9300D0D1
:103480000F92CDB7DEB7198251C18981882F90E0A4
:10349000FC01E554FE4F8081803308F4CBC0898164
:1034A000882F90E0FC01E554FE4F80818A3308F0BC
:1034B000C1C080918601882309F054C08091BA016F
:1034C000C82EDD248091BA01882F90E0880F991FC3
:1034D000880F991FFC01E957FE4F80819181A281DD
:1034E000B381BC01CD0120E030E040E251E40E9414
:1034F0001F02DC01CB017C018D018981882F90E0C6
:10350000FC01E554FE4F8081882F90E0C097AA27E8
:1035100097FDA095BA2FBC01CD010E94B5049B0177
:10352000AC01C801B7010E94F201DC01CB019C0192
:10353000AD01C601880F991F880F991FFC01E9573B
:10354000FE4F20833183428353838DEC9CECACECA3
:10355000BDE38093CF019093D001A093D101B093AC
:10356000D201E1C0109286018091BA01C82EDD24FB
:103570008091BA01882F90E0880F991F880F991FBA
:10358000FC01E957FE4FE080F180028113818981BF
:10359000882F90E0FC01E554FE4F8081882F90E059
:1035A000C097AA2797FDA095BA2FBC01CD010E9414
:1035B000B504DC01CB012091CF013091D0014091C5
:1035C000D1015091D201BC01CD010E941F02DC014A
:1035D000CB019C01AD01C801B7010E94F201DC01E1
:1035E000CB019C01AD01C601880F991F880F991F5F
:1035F000FC01E957FE4F208331834283538380913E
:10360000CF019091D001A091D101B091D201BC0124
:10361000CD012DEC3CEC4CEC5DE30E941F02DC0183
:10362000CB018093CF019093D001A093D101B093AF
:10363000D20179C08DEC9CECACECBDE38093CF0162
:103640009093D001A093D101B093D2011092860142
:103650008981882F90E0FC01E554FE4F8081282F5E
:1036600030E03B832A838A819B818D32910559F119
:103670002A813B812E3231055CF48A819B818A321A
:10368000910581F12A813B812B32310569F04BC0D4
:103690008A819B818E32910509F442C02A813B8147
:1036A0002F32310571F13FC08091BA01882F90E02F
:1036B000FC01E055FE4F8BE280838091BA018F5F61
:1036C0008093BA0130C08091BA01882F90E0FC014C
:1036D000E055FE4F8DE280838091BA018F5F809329
:1036E000BA0121C08091BA01882F90E0FC01E05519
:1036F000FE4F8AE280838091BA018F5F8093BA0186
:1037000012C08091BA01882F90E0FC01E055FE4F75
:103710008FE280838091BA018F5F8093BA0103C0EA
:1037200081E08093860189818F5F89839091DD019B
:103730008981891708F4A9CE0F900F900F90CF912F
:10374000DF911F910F91FF90EF90DF90CF90089540
:10375000CF92DF92EF92FF920F931F93DF93CF935D
:1037600000D00F92CDB7DEB71B8221C18B81882F8D
:1037700090E0FC01E055FE4F80818A32A9F58B81F3
:10378000C82EDD248B81882F90E0880F991F880F29
:10379000991FFC01E957FE4FE080F18002811381FF
:1037A0008B81882F90E00196880F991F880F991FB1
:1037B000FC01E957FE4F2081318142815381C801CC
:1037C000B7010E941F02DC01CB019C01AD01C601C3
:1037D000880F991F880F991FFC01E957FE4F20831E
:1037E0003183428353839DC08B81882F90E0FC01FD
:1037F000E055FE4F80818F3209F0D6C08B81882F33
:1038000090E00196880F991F880F991FFC01E957D6
:10381000FE4F80819181A281B381BC01CD0120E066
:1038200030E040E050E00E94C503882309F045C025
:1038300082E064E00E945A0E80E690E00E94F50C5F
:103840001A8223C08A81882F90E0FC01E055FE4F48
:1038500010828A81882F90E0880F991F880F991F06
:10386000FC01E957FE4F80E090E0A0E0B0E08083EB
:103870009183A283B3838A81882F90E0FC01ED526B
:10388000FE4F10828A818F5F8A838A818A30D0F2CC
:103890008DEC9CECACECBDE38093CF019093D00118
:1038A000A093D101B093D201109286011092DD0154
:1038B0001092BA011092AF0180C08B81C82EDD2416
:1038C0008B81882F90E0880F991F880F991FFC012A
:1038D000E957FE4FE080F180028113818B81882FB0
:1038E00090E00196880F991F880F991FFC01E957F6
:1038F000FE4F2081318142815381C801B7010E946E
:103900001903DC01CB019C01AD01C601880F991F91
:10391000880F991FFC01E957FE4F208331834283B2
:1039200053838B818F5F898332C08981882F90E098
:103930009C01215030408981882F90E0FC01E055A6
:10394000FE4F8081F901E055FE4F80838981682F09
:1039500070E08981882F90E00196880F991F880F69
:10396000991FFC01E957FE4F20813181428153812B
:10397000CB01880F991F880F991FFC01E957FE4F53
:10398000208331834283538389818F5F8983909120
:10399000BA018981891748F28091BA0181508093D8
:1039A000BA018B8181508B838B818F5F8B83909148
:1039B000BA018B81891708F4D9CE0F900F900F9020
:1039C000CF91DF911F910F91FF90EF90DF90CF90FB
:1039D0000895CF92DF92EF92FF920F931F93DF93A0
:1039E000CF9300D000D000D0CDB7DEB71A8266C228
:1039F0008A81882F90E0FC01E055FE4F80818B3258
:103A000009F007C18091AF01882309F460C08A8161
:103A1000882F90E0880F991F880F991FFC01E957A4
:103A2000FE4FE080F180028113818A81882F90E02F
:103A30000196880F991F880F991FFC01E957FE4FC7
:103A400020813181428153811E82C801B7010E94C9
:103A50005504882314F081E08E8381E09E818927BC
:103A60008823A9F58A81C82EDD248A81882F90E0D9
:103A7000880F991F880F991FFC01E957FE4FE080BE
:103A8000F180028113818A81882F90E00196880F4E
:103A9000991F880F991FFC01E957FE4F2081318142
:103AA00042815381C801B7010E94C101DC01CB01F1
:103AB0009C01AD01C601880F991F880F991FFC0159
:103AC000E957FE4F2083318342835383B1C18091F4
:103AD000AF01882309F463C08A81882F90E0880FA2
:103AE000991F880F991FFC01E957FE4FE080F18074
:103AF000028113818A81882F90E00196880F991F97
:103B0000880F991FFC01E957FE4F208131814281C6
:103B100053811D82C801B7010E948504882314F4D3
:103B200081E08D8381E09D8189278823C1F51092F2
:103B3000AF018A81C82EDD248A81882F90E001960A
:103B4000880F991F880F991FFC01E957FE4FE080ED
:103B5000F180028113818A81882F90E00196880F7D
:103B6000991F880F991FFC01E957FE4F2081318171
:103B700042815381C801B7010E94C101DC01CB0120
:103B80009C01AD01C601880F991F880F991FFC0188
:103B9000E957FE4F208331834283538349C180918B
:103BA000AF01882309F044C18A81C82EDD248A81AF
:103BB000882F90E0880F991F880F991FFC01E95703
:103BC000FE4FE080F180028113818A81882F90E08E
:103BD0000196880F991F880F991FFC01E957FE4F26
:103BE0002081318142815381C801B7010E94F201D5
:103BF000DC01CB019C01AD01C601880F991F880F24
:103C0000991FFC01E957FE4F208331834283538380
:103C10000FC18A81882F90E0FC01E055FE4F808122
:103C20008D3209F048C18091AF01882309F060C04E
:103C30008A81882F90E0880F991F880F991FFC01B7
:103C4000E957FE4FE080F180028113818A81882F3D
:103C500090E00196880F991F880F991FFC01E95782
:103C6000FE4F20813181428153811C82C801B701FE
:103C70000E945504882314F081E08C8381E09C81AC
:103C800089278823A9F58A81C82EDD248A81882F77
:103C900090E0880F991F880F991FFC01E957FE4F8C
:103CA000E080F180028113818A81882F90E0019663
:103CB000880F991F880F991FFC01E957FE4F20813B
:103CC000318142815381C801B7010E94C101DC01E9
:103CD000CB019C01AD01C601880F991F880F991F68
:103CE000FC01E957FE4F2083318342835383A0C0F8
:103CF0008091AF01882309F063C08A81882F90E00A
:103D0000880F991F880F991FFC01E957FE4FE0802B
:103D1000F180028113818A81882F90E00196880FBB
:103D2000991F880F991FFC01E957FE4F20813181AF
:103D3000428153811B82C801B7010E9485048823F8
:103D400014F481E08B8381E09B8189278823C1F56E
:103D500081E08093AF018A81C82EDD248A81882F7B
:103D600090E00196880F991F880F991FFC01E95771
:103D7000FE4FE080F180028113818A81882F90E0DC
:103D8000880F991F880F991FFC01E957FE4F20816A
:103D9000318142815381C801B7010E94C101DC0118
:103DA000CB019C01AD01C601880F991F880F991F97
:103DB000FC01E957FE4F208331834283538338C08F
:103DC0008091AF018823A1F18A81C82EDD248A81E8
:103DD000882F90E0880F991F880F991FFC01E957E1
:103DE000FE4FE080F180028113818A81882F90E06C
:103DF0000196880F991F880F991FFC01E957FE4F04
:103E00002081318142815381C801B7010E94F201B2
:103E1000DC01CB019C01AD01C601880F991F880F01
:103E2000991FFC01E957FE4F20833183428353835E
:103E30008A818F5F898332C08981882F90E09C01BD
:103E4000215030408981882F90E0FC01E055FE4FE1
:103E50008081F901E055FE4F80838981682F70E0F1
:103E60008981882F90E00196880F991F880F991FEC
:103E7000FC01E957FE4F2081318142815381CB0102
:103E8000880F991F880F991FFC01E957FE4F208367
:103E900031834283538389818F5F89839091BA01F3
:103EA0008981891748F28091BA0181508093BA01C3
:103EB0008A8181508A838A818F5F8A839091BA0137
:103EC0008A81891708F494CD26960FB6F894DEBF40
:103ED0000FBECDBFCF91DF911F910F91FF90EF905B
:103EE000DF90CF900895AA1BBB1B51E107C0AA1F0A
:103EF000BB1FA617B70710F0A61BB70B881F991F8B
:103F00005A95A9F780959095BC01CD010895A1E23D
:103F10001A2EAA1BBB1BFD010DC0AA1FBB1FEE1F43
:103F2000FF1FA217B307E407F50720F0A21BB30B8E
:103F3000E40BF50B661F771F881F991F1A9469F70A
:103F400060957095809590959B01AC01BD01CF0166
:103F500008952F923F924F925F926F927F928F922D
:103F60009F92AF92BF92CF92DF92EF92FF920F9308
:103F70001F93CF93DF93CDB7DEB7CA1BDB0B0FB612
:103F8000F894DEBF0FBECDBF09942A8839884888CF
:103F90005F846E847D848C849B84AA84B984C88465
:103FA000DF80EE80FD800C811B81AA81B981CE0F5C
:103FB000D11D0FB6F894DEBF0FBECDBFED01089541
:043FC000F894FFCFA3
:103FC4004D415448204552524F5200000000000019
:103FD40000000000010202030303030404040404B8
:103FE4000404040505050505050505050505050580
:103FF4000505050606060606060606060606060660
:10400400060606060606060606060606060606064C
:10401400060606070707070707070707070707072F
:10402400070707070707070707070707070707071C
:10403400070707070707070707070707070707070C
:1040440007070707070707070707070707070707FC
:1040540007070708080808080808080808080808DF
:1040640008080808080808080808080808080808CC
:1040740008080808080808080808080808080808BC
:1040840008080808080808080808080808080808AC
:10409400080808080808080808080808080808089C
:1040A400080808080808080808080808080808088C
:1040B400080808080808080808080808080808087C
:1040C400080808080808080808080808080808086C
:1040D4000808083132332B3435362D3738392A2E37
:0440E400303D2F003C
:00000001FF
